:1000000059C0000095C0000093C0000091C00000DE
:100010008FC000008DC000008BC0000089C00000B0
:1000200087C0000085C0000083C0000081C00000C0
:100030007FC000007DC000007BC0000079C00000D0
:1000400077C0000075C0000073C0000071C00000E0
:100050006FC000000C94B90C0C94B30C0C94BF0C42
:1000600067C0000065C0000063C0000061C0000000
:100070005FC000005DC000005BC000000C943C0D40
:1000800057C0000055C0000053C0000051C0000020
:100090004FC000004DC000004BC0000049C0000030
:1000A00047C0000045C00000000002010406030034
:1000B0000300BA0D11241FBECFEFCDBFDFE7DEBFB7
:1000C0008091400080934000811105C098ED21E0AF
:1000D00094BF209341008CBB80E38093011088ED96
:1000E00090EB84BF9093011012E4A0E0B0E4EAE347
:1000F000FCE100E00BBF02C007900D92AC34B107E9
:10010000D9F723E4ACE4B2E401C01D92AB35B207E9
:10011000E1F710E0CAE5D0E004C02197FE010E949B
:10012000030EC935D107C9F70E94580D0C941B0E58
:1001300067CFAF92BF92CF92DF92EF92FF920F9371
:100140001F93CF93DF936C017B018B01040F151F6D
:10015000EB015E01AE18BF08C017D10759F06991D5
:10016000D601ED91FC910190F081E02DC601099539
:10017000892B79F7C501DF91CF911F910F91FF90E6
:10018000EF90DF90CF90BF90AF900895FC01518920
:100190004289252F30E0842F90E0821B930B541767
:1001A00010F0CF96089501970895FC0197858089F6
:1001B000981761F0A089AE0FBF2FB11D53968C9197
:1001C00090899F5F9F73908B90E008958FEF9FEFD2
:1001D0000895FC0197858089981731F08089E80F90
:1001E000F11D838990E008958FEF9FEF0895FC0142
:1001F00097852089892F90E0805C9F4F821B910911
:100200008F7399270895FC010FB607FE04C08091F3
:1002100011018823A9F0A085B18514968C911497BB
:1002200085FF0EC091898289981307C015968C911D
:1002300015978F7D15968C930895E8940C94CC0CAB
:1002400008950F931F93CF93DF93EC018E85816008
:100250008E8799898A8998130BC0E885F9858481EE
:1002600085FF06C08E8581FD0DC080E4848312C0A9
:10027000062F19891F5F1F738A89811315C0CE014C
:10028000C2DFFACF85818F77806490E49483E8851C
:10029000F9858583E885F985628381E090E0DF91C7
:1002A000CF911F910F910895E989EC0FFD2FF11D5A
:1002B000ED5AFF4F0083198B8E85E885F98581FF04
:1002C00009C085818F77806690E49483E885F985FD
:1002D0008583E3CF85818062FBCFCF93C82F682FC2
:1002E00062956F7060636A330CF0695F88EC92E42A
:1002F000A8DF6C2F6F7060636A3308F0695F88EC69
:1003000092E4CF919ECFCF93DF93EC018E8588232B
:1003100059F0E885F985858185FD03C0848186FDD6
:1003200003C0CE0170DFF5CFDF91CF9108959FB765
:10033000F894E0912A0BF0912B0B8091260B2091E1
:10034000C4423091C5424091C6425091C7429FBFBE
:1003500080FF08C0CF018827892B21F42F5F3F4FF2
:100360004F4F5F4F0F0116940794169407941694FD
:10037000079416940794F00116940794E00DF11D6C
:1003800016940794102C169401181694010C1694C8
:1003900001181694010C1694011816941694010C69
:1003A0001124E019F109A8EEB3E00E94F90D6E0FD7
:1003B0007F1F811D911D0895FB0101900020E9F729
:1003C0003197AF01461B570BB4CEBC0188EC92E4C9
:1003D000F3CFCF92DF92EF92FF920F931F93CF93C1
:1003E000DF93CDB7DEB7A197CDBFDEBF9C0150E054
:1003F00040E019A28E010F5D1F4F8AE0C82ED12C5C
:10040000E12CF12CCA01B901A70196010E94D70D78
:10041000605DF80162938F01211531054105510599
:1004200089F73097C1F0BF0188EC92E4C5DF8C01F9
:1004300067E570E488EC92E4BFDF800F911FA1961E
:10044000CDBFDEBFDF91CF911F910F91FF90EF9055
:10045000DF90CF90089510E000E0EACFCF92DF92D6
:10046000EF92FF92CF93DF931092D5428091D642C4
:1004700080FF13C088EC92E446DFE091D042F09117
:10048000D142868116828581158280E484838091A1
:10049000D8428093D7421092D6426FB7F894E09139
:1004A000D042F091D142168233E0378381E493E069
:1004B00080879187148680E8858380EC86832091ED
:1004C000D5427091D4428091D2429091D342FC01A6
:1004D000239FE00DF11D112445915491271708F039
:1004E0003EC0573190F4252F30E0F901E25DFF4B1B
:1004F000A081AF3F51F0295E3F4BE901E881D0E296
:10050000ED9FF0011124FC5FA18321E0250F27312D
:1005100030F530E0F901E25DFF4BC081CF3FF9F0EB
:10052000F901E95EFF4BA081E0E2AE9FD00111240A
:10053000BC5F2050304CF901D081F0E0E0E0D830D1
:1005400030F49D01205F3F4FF901ED0FF11D3FB7E2
:10055000F8941296CC932081286020833FBFFC0141
:1005600023E0729FE00DF11D11243296E4918091F9
:10057000E205E095E823E42BE093E2056FBFD7DEC8
:10058000EB0188EEC82E83E0D82EE12CF12CCFDED3
:100590006C1B7D0B683E7340D0F3E1E0CE1AD108AE
:1005A000E108F108C851DC4FC114D104E104F104A1
:1005B00071F78AE590E409DF8091000680FD02C0B2
:1005C0000C948D0C80910A0680FF02C00C94B10C33
:1005D00094E090930806509101064091000681E056
:1005E000809300069093010680930A0680910D0681
:1005F00080FFFCCF20911006309111065093010628
:100600004093000681E090E0C901829532958327EE
:100610009227009721F080934C4290934D42C091D5
:100620004C42D0914D429E01220F331FC227D32747
:100630009E0136952795C227D3273327C0FB36F96D
:10064000C1FB37F9D327C0934C42D0934D428FED75
:1006500090E4BBDECE01BDDE209721F0C0934E4278
:10066000D0934F42C0914E42D0914F429E01220FF3
:10067000331FC227D3279E0136952795C227D3273C
:100680003327C0FB37F9D327C0934E42D0934F4254
:1006900085EE90E49ADECE019CDE209721F0C09397
:1006A0005042D0935142C0915042D09151429E014C
:1006B000220F331FC227D3279E01369527953695E3
:1006C0002795369527953695279536952795C227F0
:1006D000D3279E01220F331F220F331FC227D32798
:1006E000C0935042D09351428BEE90E46EDECE0127
:1006F00070DE209721F0C0935242D0935342C091B4
:100700005242D09153429E01220F331FC227D3275A
:100710009E01220F232F221F330B3195C227D3278F
:100720009E01220F331F220F331F220F331F220F70
:10073000331FC227D327C0935242D093534281EF35
:1007400090E443DECE0145DE209721F0C093544271
:10075000D0935542C0915442D09155429E01220FF0
:10076000331FC227D3279E01220F232F221F330BB3
:100770003195C227D3273C2F330F330F330FD327A5
:10078000C0935442D093554287EF90E41EDECE01D1
:1007900020DE209721F0C0935642D0935742C0915B
:1007A0005642D09157429E01220F331FC227D327B2
:1007B0002D2F269526952695C2279E01220F331FA1
:1007C000220F331F220F331FC227D327C093564255
:1007D000D09357428DEF90E4F8DDCE01FADD2097FB
:1007E00021F0C0935842D0935942C0915842D091C1
:1007F00059429E01220F331FC227D327D7FB22273E
:1008000020F9C2279E01220F331F220F331F220F10
:10081000331F220F331F220F331F220F331FC22714
:10082000D327C0935842D093594283E091E4CDDD61
:10083000CE01CFDD209721F0C0935A42D0935B4286
:10084000C0915A42D0915B429E01220F331FC227B2
:10085000D327D7FB222720F9C2279E013695322FB6
:10086000222737952795C227D327C0935A42D09382
:100870005B4289E091E4A9DDCE01ABDD209721F058
:10088000C0935C42D0935D42C0915C42D0915D4286
:100890009E01220F331F220F331FC227D3279E0131
:1008A000369527953695279536952795369527952C
:1008B00036952795C227D3279E01220F331FC227C3
:1008C000D327C0935C42D0935D428FE091E47DDDFD
:1008D000CE017FDD209721F0C0935E42D0935F422E
:1008E000C0915E42D0915F429E01220F331F220FC2
:1008F000331FC227D3279E01369527953695279516
:10090000369527953695279536952795C227D3276F
:100910003C2F3295330F307ED327C0935E42D09365
:100920005F4285E191E451DDCE0153DD209721F056
:10093000C0936042D0936142C0916042D0916142C5
:100940009E01220F331F220F331FC227D3279E0180
:10095000369527953695279536952795369527957B
:1009600036952795C227D3273327C0FB37F9D327DE
:10097000C0936042D09361428BE191E426DDCE01C9
:1009800028DD209721F0C0936242D0936342C0914A
:100990006242D09163429E01220F331F220F331F08
:1009A000C227D3279E01220F232F221F330B3195FD
:1009B000C227D3273C2F3295330F307ED327C093E5
:1009C0006242D093634281E291E4FFDCCE0101DD1B
:1009D000209721F0C0936442D0936542C091644255
:1009E000D09165429E01220F331F220F331FC22771
:1009F000D3279E01220F232F221F330B3195C227AD
:100A0000D3273327C0FB37F9D327C0936442D09351
:100A1000654287E291E4D9DCCE01DBDC209721F04E
:100A2000C0936642D0936742C0916642D0916742BC
:100A30009E01220F331F220F331F220F331FC227A5
:100A4000D3279E0136952795C227D3273C2F329571
:100A5000307FD327C0936642D09367428DE291E402
:100A6000B4DCCE01B6DC209721F0C0936842D0936D
:100A70006942C0916842D09169429E01220F331FA2
:100A8000220F331F220F331FC227D3279E01369513
:100A90002795C227D3273327C0FB37F9D327C09325
:100AA0006842D093694283E391E48FDCCE0191DC0C
:100AB000209721F0C0936A42D0936B42C0916A4262
:100AC000D0916B429E01220F331F220F331F220F42
:100AD000331FC227D3279E01369527953695279534
:100AE000369527953695279536952795C227D3278E
:100AF0003C2F330F330F330FD327C0936A42D09369
:100B00006B4289E391E461DCCE0163DC209721F044
:100B1000C0936C42D0936D42C0916C42D0916D42B3
:100B20009E01220F331F220F331F220F331FC227B4
:100B3000D3272D2F269526952695C2279E01220F75
:100B4000331FC227D327C0936C42D0936D428FE3EB
:100B500091E43BDCCE013DDC209721F0C0936E4256
:100B6000D0936F42C0916E42D0916F429E01220F8E
:100B7000331F220F331F220F331FC227D3272D2FDE
:100B8000269526952695C2273C2F330F330F330F1A
:100B9000D327C0936E42D0936F4285E491E415DC75
:100BA000CE0117DC209721F0C0937042D0937142A0
:100BB000C0917042D09171429E01220F331F220FCB
:100BC000331F220F331FC227D3272D2F229526959F
:100BD0002770C2273C2F330FD327C0937042D09386
:100BE00071428BE491E4F1DBCE01F3DB209721F03D
:100BF000C0937242D0937342C0917242D0917342BB
:100C00009E01220F331F220F331F220F331F220F8B
:100C1000331FC227D3279E013695279536952795F2
:100C200036952795C227D3279E013695322F222746
:100C300037952795C227D327C0937242D09373422A
:100C400081E591E4C2DBCE01C4DB209721F0C093A3
:100C50007442D0937542C0917442D09175429E0106
:100C6000220F331F220F331F220F331F220F331F78
:100C7000C227D3279E01220F232F221F330B31952A
:100C8000C227D3279E01220F331FC227D327C09329
:100C90007442D093754287E591E497DBCE0199DBEE
:100CA000209721F0C0937642D0937742C09176424C
:100CB000D09177429E01220F331F220F331F220F44
:100CC000331F220F331FC227D3272D2F269526959A
:100CD0002695C2273C2F330F330F330FD327C093F2
:100CE0007642D09377428DE591E46FDBCE0171DBE4
:100CF000209721F0C0937842D0937942C0917842F6
:100D0000D09179429E01220F331F220F331F220FF1
:100D1000331F220F331F220F331FC227D3279E01F9
:100D2000220F232F221F330B3195C227D3273327BE
:100D3000C0FB36F9C1FB37F9D327C0937842D09373
:100D4000794283E691E441DBCE0143DB209721F039
:100D5000C0937A42D0937B42C0917A42D0917B4239
:100D60009E01220F331F220F331F220F331F220F2A
:100D7000331F220F331FC227D3272D2F2695C227BB
:100D80003C2FD327C0937A42D0937B4289E691E4EB
:100D90001CDBCE011EDB209721F0C0937C42D09358
:100DA0007D42C0917C42D0917D429E01220F331F33
:100DB000220F331F220F331F220F331F220F331F27
:100DC000C227D3272D2F269526952695C2279E012B
:100DD000220F331F220F331F220F331F220F331F07
:100DE000220F331F220F331FC227D327C0937C4209
:100DF000D0937D428FE691E4E8DACE01EADA2097DB
:100E000021F0C0937E42D0937F42C0917E42D09128
:100E10007F429E01220F331F220F331F220F331FE9
:100E2000220F331F220F331FC227D3272D2F2695C2
:100E300026952695C2273C2F330F330F330FD32728
:100E4000C0937E42D0937F4285E791E4BEDACE0123
:100E5000C0DA209721F0C0938042D0938142C091A4
:100E60008042D09181429E01220F331F220F331FF7
:100E7000220F331F220F331F220F331F220F331F66
:100E8000C227D3279E01220F232F221F330B319518
:100E9000C227D3273C2F3295330F307ED327C09300
:100EA0008042D09381428BE791E48FDACE0191DAD0
:100EB000209721F0C0938242D0938342C091824216
:100EC000D09183429E01220F331F220F331F220F26
:100ED000331F220F331F220F331F220F331FC2274E
:100EE000D3272D2F269526952695C2279E01220FC2
:100EF000331F220F331F220F331F220F331F220FE6
:100F0000331FC227D327C0938242D093834281E804
:100F100091E45BDACE015DDA209721F0C093844240
:100F2000D0938542C0918442D09185429E01220F88
:100F3000331F220F331F220F331F220F331F220FA5
:100F4000331F220F331FC227D327D7FB222720F9B5
:100F5000C2279E01220F331FC227D327C09384428A
:100F6000D093854287E891E430DACE0132DA2097D7
:100F700021F0C0938642D0938742C0918642D0919F
:100F800087429E013695322F222737952795C22713
:100F9000D3279E0136952795C227D3273C2F330FA1
:100FA000330F330FD327C0938642D09387428DE807
:100FB00091E40BDACE010DDA209721F0C09388423C
:100FC000D0938942C0918842D09189429E01369542
:100FD000322F222737952795C227D3279E01369592
:100FE00027953695279536952795C227D3279E01B5
:100FF000220F331F220F331F220F331F220F331FE5
:10100000C227D327C0938842D093894283E991E4D1
:10101000DCD9CE01DED9209721F0C0938A42D0934B
:101020008B42C0918A42D0918B429E013695322FDD
:10103000222737952795C227D3272D2F2695C227FC
:101040003C2FD327C0938A42D0938B4289E991E405
:10105000BCD9CE01BED9209721F0C0938C42D09349
:101060008D42C0918C42D0918D429E013695322F97
:10107000222737952795C227D3272D2F2695C227BC
:101080003C2F3295330F307ED327C0938C42D093C0
:101090008D428FE991E499D9CE019BD9209721F017
:1010A000C0938E42D0938F42C0918E42D0918F4296
:1010B0009E013695322F222737952795C227D327B1
:1010C000D7FB222720F9C2279E01220F331FC227F8
:1010D000D327C0938E42D0938F4285EA91E475D98D
:1010E000CE0177D9209721F0C0939042D0939142BE
:1010F000C0919042D09191423C2FD3272D2F26951D
:10110000C2279E01220F331F220F331F220F331FCE
:10111000220F331F220F331FC227D327C0939042C1
:10112000D09391428BEA91E450D9CE0152D92097C5
:1011300021F0C0939242D0939342C0919242D091B9
:1011400093423C2FD3272D2F2695C2279E013695FB
:10115000322F222737952795C227D327C093924253
:10116000D093934281EB91E430D9CE0132D92097CC
:1011700021F0C0939442D0939542C0919442D09173
:1011800095423C2F330FD3279E01220F232F221F7E
:10119000330B3195C227D3273C2F3295330F307E46
:1011A000D327C0939442D093954287EB91E40DD915
:1011B000CE010FD9209721F0C0939642D093974249
:1011C000C0919642D09197423C2F330FD3272D2FB9
:1011D000229526952770C2279E01220F331F220FCA
:1011E000331F220F331FC227D327C0939642D093B9
:1011F00097428DEB91E4E9D8CE01EBD8209721F00E
:10120000C0939842D0939942C0919842D09199420C
:101210003C2F330F330F330FD3279E01369527957D
:10122000C227D3279E013695322F2227379527953F
:10123000C227D327C0939842D093994283EC91E47C
:10124000C4D8CE01C6D8209721F0C0939A42D0933B
:101250009B42C0919A42D0919B423C2F330F330F57
:10126000330FD3279E0136952795369527953695CA
:101270002795C227D3273C2F3295330F307ED327B3
:10128000C0939A42D0939B4289EC91E49ED8CE01C0
:10129000A0D8209721F0C0939C42D0939D42C0914A
:1012A0009C42D0919D423C2F330F330F330FD327F5
:1012B0009E0136952795369527953695279536952F
:1012C000279536952795C227D3279E01220F331FD6
:1012D000220F331F220F331FC227D327C0939C42F4
:1012E000D0939D428FEC91E470D8CE0172D82097B4
:1012F00021F0C0939E42D0939F42C0919E42D091D4
:101300009F423C2F330F330F330FD3279E01220F01
:10131000232F221F330B3195C227D3279E01220F83
:10132000331FC227D327C0939E42D0939F4285ED9F
:1013300091E44BD8CE014DD8209721F0C093A04224
:10134000D093A142C091A042D091A1423C2F330F33
:10135000330F330FD3272D2F269526952695C22799
:101360009E01220F331F220F331F220F331FC2276C
:10137000D327C093A042D093A1428BED91E425D80E
:10138000CE0127D8209721F0C093A242D093A34248
:10139000C091A242D091A3423C2F330F330F330FA1
:1013A000D3272D2F269526952695C2279E01220FFD
:1013B000331F220F331F220F331F220F331FC22769
:1013C000D327C093A242D093A34281EE91E40E941E
:1013D000E501CE010E94E901209721F0C093A442CB
:1013E000D093A542C091A442D091A5423C2F330F87
:1013F000330F330FD3272D2F269526952695C227F9
:101400009E01220F331F220F331F220F331F220F83
:10141000331F220F331FC227D327C093A442D09378
:10142000A54287EE91E40E94E501CE010E94E90108
:10143000209721F0C093A642D093A742C091A64224
:10144000D091A7423C2F3295307FD3279E0136950D
:101450002795C227D3279E01220F331F220F331F48
:10146000220F331FC227D327C093A642D093A7428F
:101470008DEE91E40E94E501CE010E94E9012097E2
:1014800021F0C093A842D093A942C091A842D09124
:10149000A9423C2F3295330F307ED3279E013695DB
:1014A00027953695279536952795C227D3273C2F24
:1014B000330F330F330FD327C093A842D093A942E1
:1014C00083EF91E40E94E501CE010E94E90120979B
:1014D00021F0C093AA42D093AB42C091AA42D091CE
:1014E000AB423C2F3295307FD3279E01369527950E
:1014F0003695279536952795C227D3273C2F3295C9
:10150000330F307ED327C093AA42D093AB4289EFEA
:1015100091E40E94E501CE010E94E901209721F0AB
:10152000C093AC42D093AD42C091AC42D091AD4299
:101530003C2F3295330F307ED3279E013695279569
:101540003695279536952795C227D3273C2F329578
:10155000307FD327C093AC42D093AD428FEF91E45C
:101560000E94E501CE010E94E901209721F0C0937D
:10157000AE42D093AF42C091AE42D091AF423C2F29
:101580003295330F307ED3279E01369527953695B9
:101590002795369527953695279536952795C22711
:1015A000D3279E01220F331F220F331FC227D327B9
:1015B000C093AE42D093AF4285E092E40E94E50131
:1015C000CE010E94E901209721F0C093B042D09350
:1015D000B142C091B042D091B1423C2F3295330F0D
:1015E000307ED3279E01220F232F221F330B3195EC
:1015F000C227D3279E01220F331F220F331FC2277A
:10160000D327C093B042D093B1428BE092E40E94C2
:10161000E501CE010E94E901209721F0C093B2427A
:10162000D093B342C091B242D091B3423C2F329595
:10163000330F307ED3279E01220F232F221F330B1F
:101640003195C227D3279E01220F331F220F331F4C
:10165000220F331F220F331F220F331F220F331F7E
:10166000C227D327C093B242D093B34281E192E420
:101670000E94E501CE010E94E901209721F0C0936C
:10168000B442D093B542C091B442D091B5423C2F00
:101690003295330F307ED3279E01220F232F221F36
:1016A000330B3195C227D3273C2F330FD327C09359
:1016B000B442D093B54287E192E40E94E501CE01A5
:1016C0000E94E901209721F0C093B642D093B7421F
:1016D000C091B642D091B7423C2F3295330F307E45
:1016E000D3272D2F2695C2279E013695322F2227EC
:1016F00037952795C227D327C093B642D093B742D8
:101700008DE192E40E94E501CE010E94E90120975B
:1017100021F0C093B842D093B942C091B842D09161
:10172000B9423327C0FB36F9C1FB37F9D3279E01F5
:1017300036952795C227D3279E01220F331FC22734
:10174000D327C093B842D093B94283E292E40E9477
:10175000E501CE010E94E901209721F0C093BA4231
:10176000D093BB42C091BA42D091BB423327C0FB59
:1017700036F9C1FB37F9D3279E01220F232F221FF1
:10178000330B3195C227D3279E01220F331F220F1F
:10179000331F220F331F220F331F220F331FC22785
:1017A000D327C093BA42D093BB4289E292E40E940D
:1017B000E501CE010E94E901209721F0C093BC42CF
:1017C000D093BD42C091BC42D091BD423327C0FBF3
:1017D00037F9D3279E0136952795C227D3279E0137
:1017E000220F331FC227D327C093BC42D093BD42E0
:1017F0008FE292E40E94E501CE010E94E901209768
:1018000021F0C093BE42D093BF42C091BE42D0915E
:10181000BF423327C0FB37F9D3279E013695279562
:10182000C227D3279E01220F331F220F331F220FFF
:10183000331FC227D327C093BE42D093BF4285E354
:1018400092E40E94E501CE010E94E901209721F077
:10185000C093C042D093C142C091C042D091C14216
:101860003327C0FB37F9D3279E0136952795369548
:101870002795369527953695279536952795C2272E
:10188000D3279E01220F331F220F331FC227D327D6
:10189000C093C042D093C1428BE392E40E94E50121
:1018A000CE010E94E901209721F0C093C242D0935B
:1018B000C342C091C242D091C3423327C0FB37F923
:1018C000D3279E01220F232F221F330B3195C227CE
:1018D000D3279E01220F331F220F331FC227D32786
:1018E000C093C242D093C34281E492E40E94E501D6
:1018F000CE010E94E90167E472E488EC92E40E9460
:10190000DC0167E570E488EC92E4DF91CF91FF9011
:10191000EF90DF90CF900C94DC01C9EF6AE770E4A0
:1019200088EC92E40E94DC0167E570E488EC92E4C4
:101930000E94DC0182ED90E40E94E50182E80E94B1
:101940006D0184ED0E946D018AE80E946D018C2F6B
:101950000E946D0167E570E488EC92E40E94DC016E
:10196000FFCFCFEFDBCFEF93FF93F898E8ECF2E4F3
:101970000BC0EF93FF93F898E8ECF2E434C0EF93D8
:10198000FF93E8ECF2E45FC02F932FB72F938F9370
:101990009F93AF93BF936894CF93DF9320E0C0856C
:1019A000D8E09289DF01A90FB21FAD5ABF4F8C91C9
:1019B00020E42C838A839F5F9F738D812189291363
:1019C00002C08F7D8D83928BDF91CF9116F00C94A6
:1019D0002001BF91AF919F918F912F912FBF2F9198
:1019E000FF91EF9118952F932FB72F933F938F93DC
:1019F0009F93CF93DF93C085D8E02E812F7E2E83D7
:101A0000898198818674880F3685382B82FD0DC0B8
:101A1000C78581E08C0F8F732089281791F0CE0F36
:101A2000DF2F20E0D21F9B8B87873687DF91CF91F6
:101A30009F918F913F912F912FBF2F91FF91EF9108
:101A400018953064F2CF8F938FB78F939F93CF9376
:101A5000DF93C085D8E09D8188818C8187FDFCCF94
:101A60009F7B90689D83DF91CF919F918F918FBFD6
:101A70008F91FF91EF911895EF93FF93E4ECF2E4CF
:101A80008F938FB78F9380818F5F808381818F4FFA
:101A9000818382818F4F828383818F4F838381E013
:101AA0008093260B8F918FBF8F91FF91EF911895A7
:101AB00084E08093700488ED94E284BF9093680082
:101AC00031E03093030A9EEF9093260A9093270A01
:101AD0008BE08093000A23E02093E6051092E7054F
:101AE00047E04093010B90930C0B10920D0B85E097
:101AF0008093000B4093110B90931C0B10921D0BC5
:101B00008093100B4FEF5FE04093AA0B5093AB0B09
:101B100090E89093820B1092810B4BEF53E040932F
:101B2000AE0B5093AF0B91E79093800BE0E0F6E0A3
:101B300082839EE0958390E6938380838091B000BA
:101B4000887F85608093B0008091B200887F856037
:101B50008093B2008FED9EE280932C0B90932D0B1F
:101B60003093250B1092210B2093200B78940E9428
:101B70002E02FFCFE8ECF2E41282138288EE93E0AB
:101B8000A0E0B0E084839583A683B78389E490E4E2
:101B90008083918380E098E08087918788EA90E055
:101BA0008287938782E08487158616860895A1E24E
:101BB0001A2EAA1BBB1BFD010DC0AA1FBB1FEE1FC7
:101BC000FF1FA217B307E407F50720F0A21BB30B12
:101BD000E40BF50B661F771F881F991F1A9469F78E
:101BE00060957095809590959B01AC01BD01CF01EA
:101BF000089512D0A59F900DB49F900DA49F800DC5
:101C0000911D11240895EE0FFF1F0024001C0BBE30
:101C10000790F691E02D0994A29FB001B39FC001F7
:101C2000A39F700D811D1124911DB29F700D811D08
:0A1C30001124911D0895F894FFCFD0
:101C3A00000102030405060700010203FF01020373
:101C4A00040506070001060000000000000000026B
:101C5A00020202030303030303030305050501024A
:101C6A0004081020408001020408FF020408102022
:101C7A0040800102400000000021019900C6008353
:101C8A0001F700D500E9000D0A0047656E6572612B
:101C9A0074652073656564202866726F6D206A75A5
:101CAA00737420616463293A2000414443206661C9
:101CBA00696C757265212120506C656173652072AB
:101CCA0065706F72742074686520636F6E646974DE
:101CDA00696F6E7320756E646572207768696368D0
:101CEA002074686973206F63637572726564207605
:101CFA006961206769746875622069737375652EF6
:101D0A0020004572726F7220636F64653A20003159
:101D1A0031653A20003131663A20003135323A20B5
:101D2A00003137343A20003137623A2000316233C9
:101D3A003A20003166363A20003166373A200032BE
:101D4A0035313A20003235643A20003235663A207D
:101D5A00003237643A20003237663A200033316362
:101D6A003A20003331663A20003335623A20003394
:101D7A0062313A20003362623A20003364393A20F1
:101D8A00003433373A20003437313A200034626263
:101D9A003A20003537653A20003539383A2000357F
:101DAA0062363A20003562623A20003637643A20B9
:101DBA00003662353A20003666313A200037316201
:101DCA003A20003733343A20003739383A2000377E
:101DDA0039643A20003766313A20003839353A20DA
:101DEA00003839373A20003937643A2000396433E9
:101DFA003A20006231373A20006233643A200062A6
:101E0A0035333A20006237313A20006262333A2091
:101E1A00006262343A20006262353A20006331334C
:101E2A003A20006433623A20006333643A20006443
:101E3A0033633A20006435323A20006437323A205C
:101E4A00006437363A20006437393A20006439375B
:101E5A003A20006531313A20006537353A2000666C
:101E6A0031313A20006631333A20006635323A2061
:0C1E7A00006637323A2000446F6E6500AD
:00000001FF
